{
  "contractName": "DistributorRole",
  "abi": [
    {
      "constant": false,
      "inputs": [],
      "name": "renounceOwnership",
      "outputs": [],
      "payable": false,
      "stateMutability": "nonpayable",
      "type": "function"
    },
    {
      "constant": true,
      "inputs": [],
      "name": "owner",
      "outputs": [
        {
          "name": "",
          "type": "address"
        }
      ],
      "payable": false,
      "stateMutability": "view",
      "type": "function"
    },
    {
      "constant": true,
      "inputs": [],
      "name": "isOwner",
      "outputs": [
        {
          "name": "",
          "type": "bool"
        }
      ],
      "payable": false,
      "stateMutability": "view",
      "type": "function"
    },
    {
      "constant": false,
      "inputs": [
        {
          "name": "newOwner",
          "type": "address"
        }
      ],
      "name": "transferOwnership",
      "outputs": [],
      "payable": false,
      "stateMutability": "nonpayable",
      "type": "function"
    },
    {
      "inputs": [],
      "payable": false,
      "stateMutability": "nonpayable",
      "type": "constructor"
    },
    {
      "anonymous": false,
      "inputs": [
        {
          "indexed": true,
          "name": "account",
          "type": "address"
        }
      ],
      "name": "DistributorAdded",
      "type": "event"
    },
    {
      "anonymous": false,
      "inputs": [
        {
          "indexed": true,
          "name": "account",
          "type": "address"
        }
      ],
      "name": "DistributorRemoved",
      "type": "event"
    },
    {
      "anonymous": false,
      "inputs": [
        {
          "indexed": true,
          "name": "oldOwner",
          "type": "address"
        },
        {
          "indexed": true,
          "name": "newOwner",
          "type": "address"
        }
      ],
      "name": "TransferOwnership",
      "type": "event"
    },
    {
      "constant": true,
      "inputs": [
        {
          "name": "account",
          "type": "address"
        }
      ],
      "name": "isDistributor",
      "outputs": [
        {
          "name": "",
          "type": "bool"
        }
      ],
      "payable": false,
      "stateMutability": "view",
      "type": "function"
    },
    {
      "constant": false,
      "inputs": [
        {
          "name": "account",
          "type": "address"
        }
      ],
      "name": "addDistributor",
      "outputs": [],
      "payable": false,
      "stateMutability": "nonpayable",
      "type": "function"
    },
    {
      "constant": false,
      "inputs": [],
      "name": "renounceDistributor",
      "outputs": [],
      "payable": false,
      "stateMutability": "nonpayable",
      "type": "function"
    }
  ],
  "bytecode": "0x608060405234801561001057600080fd5b50336000806101000a81548173ffffffffffffffffffffffffffffffffffffffff021916908373ffffffffffffffffffffffffffffffffffffffff1602179055506000809054906101000a900473ffffffffffffffffffffffffffffffffffffffff1673ffffffffffffffffffffffffffffffffffffffff16600073ffffffffffffffffffffffffffffffffffffffff167f5c486528ec3e3f0ea91181cff8116f02bfa350e03b8b6f12e00765adbb5af85c60405160405180910390a36100e5336100ea640100000000026401000000009004565b610405565b61010b81600161015164010000000002610adf179091906401000000009004565b8073ffffffffffffffffffffffffffffffffffffffff167fddbf200aa634dc3fb81cfd68583dd1040d1c751d335e1d86b631bde3e977fea860405160405180910390a250565b600073ffffffffffffffffffffffffffffffffffffffff168173ffffffffffffffffffffffffffffffffffffffff16141515156101f6576040517f08c379a00000000000000000000000000000000000000000000000000000000081526004018080602001828103825260128152602001807f76657269667920746865206163636f756e74000000000000000000000000000081525060200191505060405180910390fd5b61020f8282610308640100000000026401000000009004565b1515156102aa576040517f08c379a00000000000000000000000000000000000000000000000000000000081526004018080602001828103825260268152602001807f766572696679206163636f756e7420646f6573206e6f7420686176652074686981526020017f7320726f6c65000000000000000000000000000000000000000000000000000081525060400191505060405180910390fd5b60018260000160008373ffffffffffffffffffffffffffffffffffffffff1673ffffffffffffffffffffffffffffffffffffffff16815260200190815260200160002060006101000a81548160ff0219169083151502179055505050565b60008073ffffffffffffffffffffffffffffffffffffffff168273ffffffffffffffffffffffffffffffffffffffff16141515156103ae576040517f08c379a00000000000000000000000000000000000000000000000000000000081526004018080602001828103825260178152602001807f4163636f756e74206973206e6f7420766572696669656400000000000000000081525060200191505060405180910390fd5b8260000160008373ffffffffffffffffffffffffffffffffffffffff1673ffffffffffffffffffffffffffffffffffffffff16815260200190815260200160002060009054906101000a900460ff16905092915050565b610cb3806104146000396000f300608060405260043610610083576000357c0100000000000000000000000000000000000000000000000000000000900463ffffffff168063644241db14610088578063715018a61461009f5780637250e224146100b65780638da5cb5b146100f95780638f0c86fa146101505780638f32d59b146101ab578063f2fde38b146101da575b600080fd5b34801561009457600080fd5b5061009d61021d565b005b3480156100ab57600080fd5b506100b46102ca565b005b3480156100c257600080fd5b506100f7600480360381019080803573ffffffffffffffffffffffffffffffffffffffff16906020019092919050505061042b565b005b34801561010557600080fd5b5061010e6104d9565b604051808273ffffffffffffffffffffffffffffffffffffffff1673ffffffffffffffffffffffffffffffffffffffff16815260200191505060405180910390f35b34801561015c57600080fd5b50610191600480360381019080803573ffffffffffffffffffffffffffffffffffffffff169060200190929190505050610502565b604051808215151515815260200191505060405180910390f35b3480156101b757600080fd5b506101c061051f565b604051808215151515815260200191505060405180910390f35b3480156101e657600080fd5b5061021b600480360381019080803573ffffffffffffffffffffffffffffffffffffffff169060200190929190505050610576565b005b61022561051f565b15156102bf576040517f08c379a000000000000000000000000000000000000000000000000000000000815260040180806020018281038252602e8152602001807f4f6e6c792074686520636f6e7472616374206f776e65722063616e2063616c6c81526020017f20746869732066756e6374696f6e00000000000000000000000000000000000081525060400191505060405180910390fd5b6102c833610624565b565b6102d261051f565b151561036c576040517f08c379a000000000000000000000000000000000000000000000000000000000815260040180806020018281038252602e8152602001807f4f6e6c792074686520636f6e7472616374206f776e65722063616e2063616c6c81526020017f20746869732066756e6374696f6e00000000000000000000000000000000000081525060400191505060405180910390fd5b600073ffffffffffffffffffffffffffffffffffffffff166000809054906101000a900473ffffffffffffffffffffffffffffffffffffffff1673ffffffffffffffffffffffffffffffffffffffff167f5c486528ec3e3f0ea91181cff8116f02bfa350e03b8b6f12e00765adbb5af85c60405160405180910390a360008060006101000a81548173ffffffffffffffffffffffffffffffffffffffff021916908373ffffffffffffffffffffffffffffffffffffffff160217905550565b61043361051f565b15156104cd576040517f08c379a000000000000000000000000000000000000000000000000000000000815260040180806020018281038252602e8152602001807f4f6e6c792074686520636f6e7472616374206f776e65722063616e2063616c6c81526020017f20746869732066756e6374696f6e00000000000000000000000000000000000081525060400191505060405180910390fd5b6104d68161067e565b50565b60008060009054906101000a900473ffffffffffffffffffffffffffffffffffffffff16905090565b60006105188260016106d890919063ffffffff16565b9050919050565b60008060009054906101000a900473ffffffffffffffffffffffffffffffffffffffff1673ffffffffffffffffffffffffffffffffffffffff163373ffffffffffffffffffffffffffffffffffffffff1614905090565b61057e61051f565b1515610618576040517f08c379a000000000000000000000000000000000000000000000000000000000815260040180806020018281038252602e8152602001807f4f6e6c792074686520636f6e7472616374206f776e65722063616e2063616c6c81526020017f20746869732066756e6374696f6e00000000000000000000000000000000000081525060400191505060405180910390fd5b610621816107d5565b50565b61063881600161095e90919063ffffffff16565b8073ffffffffffffffffffffffffffffffffffffffff167f126174f6cf49c81cdb4a9214c6b8f037bef55b4ec31e4fc776cea2a1c8a88d5960405160405180910390a250565b610692816001610adf90919063ffffffff16565b8073ffffffffffffffffffffffffffffffffffffffff167fddbf200aa634dc3fb81cfd68583dd1040d1c751d335e1d86b631bde3e977fea860405160405180910390a250565b60008073ffffffffffffffffffffffffffffffffffffffff168273ffffffffffffffffffffffffffffffffffffffff161415151561077e576040517f08c379a00000000000000000000000000000000000000000000000000000000081526004018080602001828103825260178152602001807f4163636f756e74206973206e6f7420766572696669656400000000000000000081525060200191505060405180910390fd5b8260000160008373ffffffffffffffffffffffffffffffffffffffff1673ffffffffffffffffffffffffffffffffffffffff16815260200190815260200160002060009054906101000a900460ff16905092915050565b600073ffffffffffffffffffffffffffffffffffffffff168173ffffffffffffffffffffffffffffffffffffffff16141515156108a0576040517f08c379a00000000000000000000000000000000000000000000000000000000081526004018080602001828103825260268152602001807f4f6e6c7920746865206f776e65722063616e2063616c6c20746869732066756e81526020017f6374696f6e2e000000000000000000000000000000000000000000000000000081525060400191505060405180910390fd5b8073ffffffffffffffffffffffffffffffffffffffff166000809054906101000a900473ffffffffffffffffffffffffffffffffffffffff1673ffffffffffffffffffffffffffffffffffffffff167f5c486528ec3e3f0ea91181cff8116f02bfa350e03b8b6f12e00765adbb5af85c60405160405180910390a3806000806101000a81548173ffffffffffffffffffffffffffffffffffffffff021916908373ffffffffffffffffffffffffffffffffffffffff16021790555050565b600073ffffffffffffffffffffffffffffffffffffffff168173ffffffffffffffffffffffffffffffffffffffff1614151515610a03576040517f08c379a000000000000000000000000000000000000000000000000000000000815260040180806020018281038252600e8152602001807f766572696679206163636f756e7400000000000000000000000000000000000081525060200191505060405180910390fd5b610a0d82826106d8565b1515610a81576040517f08c379a000000000000000000000000000000000000000000000000000000000815260040180806020018281038252601c8152602001807f766572696679206163636f756e7420686173207468697320726f6c650000000081525060200191505060405180910390fd5b60008260000160008373ffffffffffffffffffffffffffffffffffffffff1673ffffffffffffffffffffffffffffffffffffffff16815260200190815260200160002060006101000a81548160ff0219169083151502179055505050565b600073ffffffffffffffffffffffffffffffffffffffff168173ffffffffffffffffffffffffffffffffffffffff1614151515610b84576040517f08c379a00000000000000000000000000000000000000000000000000000000081526004018080602001828103825260128152602001807f76657269667920746865206163636f756e74000000000000000000000000000081525060200191505060405180910390fd5b610b8e82826106d8565b151515610c29576040517f08c379a00000000000000000000000000000000000000000000000000000000081526004018080602001828103825260268152602001807f766572696679206163636f756e7420646f6573206e6f7420686176652074686981526020017f7320726f6c65000000000000000000000000000000000000000000000000000081525060400191505060405180910390fd5b60018260000160008373ffffffffffffffffffffffffffffffffffffffff1673ffffffffffffffffffffffffffffffffffffffff16815260200190815260200160002060006101000a81548160ff02191690831515021790555050505600a165627a7a72305820a58cb2c96780f4cff54b4f700379c767d68bb77fc114c9c250793e3873d817c70029",
  "source": "pragma solidity ^0.4.24;\n\n// Import the library 'Roles'\nimport \"./Roles.sol\";\nimport \"../coconutcore/Ownable.sol\";\n \n// Define a contract 'DistributorRole' to manage this role - add, remove, check\n/**\n* @title DistributorRole\n* @dev Contract to manage the Distributor Role - add, remove, check. \n*/\ncontract DistributorRole is Ownable {\n  using Roles for Roles.Role;\n\n  // Define 2 events, one for Adding, and other for Removing\n  // Define an Event, Adding a Distributor\n  event DistributorAdded(address indexed account);\n  // Define an  Event, Removing a Distributor\n  event DistributorRemoved(address indexed account);\n\n  // Define a struct 'distributors' by inheriting from 'Roles' library, struct Role\n  Roles.Role private distributors;\n\n  // In the constructor make the address that deploys this contract the 1st distributor\n  constructor() public {\n    _addDistributor(msg.sender);\n  }\n\n  // Define a modifier that checks to see if msg.sender has the appropriate role\n  modifier onlyDistributor() {\n    require(isDistributor(msg.sender), \"Caller is not a Distributor\");\n    _;\n  }\n\n  // Define a function 'isDistributor' to check this role\n  function isDistributor(address account) public view returns (bool) {\n    return distributors.has(account);\n  }\n\n  // Define a function 'addDistributor' that adds this role\n  function addDistributor(address account) public onlyOwner {\n    _addDistributor(account);\n  }\n\n  // Define a function 'renounceDistributor' to renounce this role\n  function renounceDistributor() public onlyOwner {\n    _removeDistributor(msg.sender);\n  }\n\n  // Define an internal function '_addDistributor' to add this role, called by 'addDistributor'\n  function _addDistributor(address account) internal {\n    distributors.add(account);\n    emit DistributorAdded(account);\n\n  }\n\n  // Define an internal function '_removeDistributor' to remove this role, called by 'removeDistributor'\n  function _removeDistributor(address account) internal {\n    distributors.remove(account);\n    emit DistributorRemoved(account);\n  }\n}",
  "sourcePath": "/Users/osamabari/Documents/Tutorial/Blockchain Nano Degree/project 3 - Part B - Nw/contracts/coconutaccesscontrol/DistributorRole.sol",
  "compiler": {
    "name": "solc",
    "version": "0.4.26+commit.4563c3fc.Emscripten.clang"
  },
  "schemaVersion": "3.0.11",
  "updatedAt": "2019-09-22T05:45:47.774Z",
  "devdoc": {
    "methods": {
      "isOwner()": {
        "details": "Checks if the calling address is the owner of the contract.",
        "return": "true if `msg.sender` is the owner of the contract."
      },
      "owner()": {
        "details": "Look up the address of the owner.",
        "return": "the address of the owner."
      },
      "renounceOwnership()": {
        "details": "Allows the current owner to relinquish control of the contract."
      },
      "transferOwnership(address)": {
        "details": "Allows the current owner to transfer control of the contract to a new Owner.",
        "params": {
          "newOwner": "The address to transfer ownership to."
        }
      }
    },
    "title": "DistributorRole"
  },
  "userdoc": {
    "methods": {
      "renounceOwnership()": {
        "notice": "Renouncing the ownership will leave the contract without an owner. It will not be possible to call the functions with the `onlyOwner` modifier anymore."
      }
    }
  }
}